:020000040000FA
:100000008A110A12CC28FF3FA000030E8312A10020
:100010000A0ECC008A010C1D1328103086068F01B1
:100020008E010C11C4288C1C78288316AD1C1E2848
:10003000AB0B6E28AC0B6E282D146E285E1D252888
:10004000AB0B2528AC0B2528DE16DF1C2F28E00B78
:100050002F281130E000203086068030860683127B
:100060000C1D3728103086068F018E010C11831667
:10007000A60B6E28A71027186828A71951288316E1
:10008000A70183128A150A12A3268A110A1283165F
:100090005E1D4C2883126E28831664118312121180
:1000A0006E2883120C1D5928103086068F018E0190
:1000B0000C118316AA0A04302A0203193F282A08C1
:1000C00003396E218A150A1283268A110A126E28B4
:1000D00083128A150A125A268A110A1283120C1DDB
:1000E0007628103086068F018E010C118C10C428E2
:1000F000C40F7B28C50A0C1D8228103086068F018C
:100100008E010C11A419AA282319882806179A28E9
:100110000C1D8F28103086068F018E010C1183165E
:1001200032199A28DE1B9A2883124030221A86063A
:100130002212A028831222199F280617A02806132E
:10014000A218A4288617A52886132218A92886167F
:10015000AA2886120C1DB128103086068F018E0148
:100160000C11A21DBE280F3083162705031DBE28C3
:1001700083128A150A1265268A110A120B118B1630
:1001800083160C158C14831283124C0E8A00210ED8
:100190008300A00E200E090083124030A200A501AA
:1001A0008316AD01A70183128A150A12552818304B
:1001B000C1000E308A110A16BF238A110A120B30B1
:1001C000C10007308A110A16CB238A110A12403067
:1001D000A300A4014030A600CF018A110A166826A8
:1001E0008A110A125930C10000308A110A16B92347
:1001F0008A110A128A110A1671238A110A128A11A7
:100200000A1607268A110A128A110A1699248A11D7
:100210000A128B270630C1000A30922798278B16C6
:1002200083160C158C148312E2218A110A16002001
:100230008A110A121E272F2983128B1683160C157A
:100240008C14831223152F2983128B1683160C15F9
:100250008C1483128A110A1645268A110A128312F7
:1002600064008A110A1600208A110A1228278A15AA
:100270000A1240248A110A1283128A110A1644258E
:100280008A110A1295228A110A161F228A110A124D
:100290008312231A562983165E1858298312A21D29
:1002A00056298316E80B58290A30E8008312832167
:1002B0008312FE26241D62298A110A168C218A11B6
:1002C0000A122F298A110A1665228A110A1264223B
:1002D0008A110A1650258A110A122F298316271A05
:1002E0007A2901302A020319253402302A0203191F
:1002F0000C34063401302A020319103402302A0269
:1003000003191234143406182F298B1283160C117A
:100310008C1083128A110A16AF258A110A1205124F
:100320007B2705168A110A168F258A110A128A114F
:100330000A1693258A110A1206181C298A110A1610
:1003400091258A110A128A110A169A258A110A120F
:10035000061824298A110A168F258A110A128A1171
:100360000A168F258A110A1215228B1683160C1570
:100370008C1483128316DE1583120800640006189D
:10038000BE2940308B1283160C118C10831205127B
:100390007627D82964000618CA29771B5A278B129A
:1003A00083160C118C108312051270274030D82947
:1003B0000516FF21013024278B1683160C158C148B
:1003C0008312080064000618E2298B1283160C11B0
:1003D0008C10831205127E27742705164330C10046
:1003E0008E306827000037224D30C1000130682769
:1003F00037228B1683160C158C1483120800B0005C
:1004000083160610003086008312CE26601C06106C
:10041000601806147F278327CC25B00B062A8B167D
:1004200083160C158C14831208004030B000060CA3
:10043000031C2610031826148A110A168F258A1108
:100440000A128A110A168F258A110A128A110A16AF
:100450008F258A110A12060CCC258A110A168F25BF
:100460008A110A127227B00B2B2AC42608004030CA
:10047000B000060C8316D32583127627B00B392AD9
:10048000080083169C118312752783161C0883129B
:10049000403983163418403A8312080083169C159D
:1004A0008312752783161C088312403908008316AF
:1004B0009C1183125E2A83169C158312752783165E
:1004C0001C08831280390800F71F2429771B5A273C
:1004D00083163A0883127602031D242983163B08EB
:1004E00083127702031D24298316B71E792A8312EB
:1004F000080083163708831210390319862AA31AB5
:10050000862A7508F3007408F2000800A31F08008B
:100510008316380883127402031D242983163908B0
:1005200083127502031D24290800A41D08008316E8
:10053000DE189C2A5E1D9E2A83120800E41A9C2A5B
:1005400083128A110A167C248A110A1283165E18F5
:10055000B22A8312D422013C031DB22AC2220318FC
:100560004824952A8A150A120D268A110A128A151C
:100570000A121B268A110A128A150A1233268A11B8
:100580000A120800FD23031DD22A02308A007708D0
:10059000073982071D2B4A2BEE2BA62B9F2BCC2B2A
:1005A0002B2C0E24031000348316671CDC2A6710E2
:1005B00083120130A800FB2A831241226400A800A4
:1005C0008A110A1676238A110A120319003441226D
:1005D000A8020319DE2A8A110A167C248A110A123B
:1005E00088272530C1000130922798278B16831663
:1005F0000C158C1483124122031DDE2A8827253016
:10060000C100013092278A150A12BC2D0134640002
:100610008316E4168312B9278B1683160C158C14D7
:1006200083128316E41283129430C10001309227A2
:1006300041220314031D031008000230F223031D9E
:10064000D22A221FD12A76080F390319442B831688
:100650006415A500A6000F3C03193D2B83128A15D3
:100660000A12AC268A110A1283168A150A12492622
:100670008A110A1206161215D12A8A150A125A264A
:100680008A110A121215D12A8316641127108312B7
:100690001215D12A0230F223031DD22A7608E0393E
:1006A000A900EA2303308A007608073982075F2B06
:1006B0006A2B762B832B8D2B1C291C291C29291F87
:1006C000642B8316641083122908FF3ACF0529088A
:1006D0008604D12A2908CF0086066B30C10000307D
:1006E0008A110A16BF238A110A12D12A291F7B2BCD
:1006F0008316E41483122908A4048A150A12182602
:100700008A110A12D12A291F882B83166414831296
:100710002908FF3ACF058605D12A290886060C301C
:10072000C10000308A110A16B9238A110A128A11EF
:100730000A1671238A110A1229088606D12A033063
:10074000F223031DD22A8A110A16312C0130F2231A
:10075000031DD22AE030EA23E03086048316A70185
:100760008316D3010830CF00D1012830B71A3030BA
:10077000D2008312121123102217A2138316E41140
:1007800064128A150A128E268A110A128A110A1612
:10079000E0248A110A12D12A0230F223031DD22A40
:1007A0002314761E23102217F61C22138516761C9E
:1007B0008512761DDE2B8316E415E02B8316E411DB
:1007C0008312F61DE62B83166416E82B831664123B
:1007D0008312D12AE03A1F38A40508000130F22321
:1007E00003100B2CB1007730840003010007840351
:1007F000B10BF62BFF3A00020B2C103077050319D2
:10080000022C0034AC24A8007708A900A90CA90C7C
:10081000290C07392802031D003401340130C100BE
:1008200000308A110A16B9238A110A128A110A168F
:1008300071238A110A1280308A150A1217258A112B
:100840000A1201308A150A1226258A110A1213305B
:10085000B300652408000130F223031DD22A0E24C0
:100860008A150A12362D0034241A3F2C5630C10046
:1008700000308A110A16B9238A110A120800393089
:10088000C10000308A110A16B9238A110A12080021
:10089000D8260330C3008B27C230C1000230922714
:1008A00098278B1683160C158C148312E426652466
:1008B0003424D422013C031D622CC222013C031DBE
:1008C000622C0800C30B4B2C08003308B0008827AB
:1008D0008614013024277430C1000130922764004F
:1008E000FF1B8124FF1F7E248A110A163B238A11D5
:1008F0000A12B00B6F2C03302427080098278614A7
:10090000832C982786108B1683160C158C14831253
:100910009430C10001309227080083165E18AA2C7B
:100920008312231C08008316E41D972CDF1D641519
:1009300083120613A3144A30C10000308A110A162C
:10094000CB238A110A12221F08008A150A12652673
:100950008A110A1283120800241A00340134A313E6
:10096000A316B92C8312A21F48248D248A110A16BB
:10097000652D8312C5248A150A12BB2C83128A1591
:100980000A12502D4824831230298316B71ED82C02
:100990008312B026B6267C260A27C8250130B2006D
:1009A000B6267C260A30BE000330BD00A025080014
:1009B000F4080319E82CB3260530BE000530BD004D
:1009C000B6267C260A27C825B6267C26A025080040
:1009D000F313B026B6267C260A27080083165E1875
:1009E0009A258312A61DB326A619B0260F303D0501
:1009F000BE003D0E0F39BD00261AC8258E258A116E
:100A00000A16EE238A110A120A27C8258E25A02568
:100A100064007B258A110A1608248A110A12BF0174
:100A200082258A150A1233228A110A123E08A8006A
:100A30000310A80D280D3E078A110A1600248A11FA
:100A40000A12B300BE03C0253E1C800EA701B501EB
:100A50002B0884000008A7060430B6002B08840089
:100A6000800C0318B50A8A110A1644238A110A1247
:100A7000B60B2E2DB50A350C8A110A1644238A119D
:100A80000A12B501BE033E1C2C2DAB03BE1F282D40
:100A90000530B60003148A110A1644238A110A127B
:100AA000B60B4A2D270E0F3AA7060430B600B50143
:100AB000A70C0318B50A8A110A1644238A110A12D0
:100AC000B60B582D8030B6003308B602B50AB50C07
:100AD0008A110A1644238A110A1203108A110A166F
:100AE00044238A110A12B60B6D2D3F08B307DA258D
:100AF0008A110A16652DA6180B30A61C0D30261972
:100B0000B3250800A8003608BF07A80D8A110A16E9
:100B100044238A110A12B60B852D0800B626A61E9C
:100B20007C26A61A942D08008A150A12F0268A112E
:100B30000A12080083120F30F0050130BD000800D2
:100B40003D0803190800C025A8018A150A123C2790
:100B50008A110A122B0884002908B3253E1CAB0A0F
:100B6000BD0BA52D0800A900C025F0303E1880055A
:100B70003E1CA90E3E1C800129088004BE0A080004
:100B80006030AB0003103E0CAB072B08840008005C
:100B90008A150A121C2F080067308400800C840319
:100BA000841DCE2D0800BF308400800C8403041AFD
:100BB000D52D08003D266400701CF2257018F5251F
:100BC0008A110A1644238A110A128A110A16AD26BE
:100BD0008A110A12B30BDB2D8B1683160C158C149D
:100BE0008312080098278610F72D98278614F92578
:100BF00008001730C10001309227982706158B1680
:100C000083160C158C1483122F262B2E9827061171
:100C10008B1683160C158C148312362601343D2650
:100C2000640070182826701C22268A110A16442394
:100C30008A110A12B30B102E8B1683160C158C1406
:100C400083120800982786142F26982786102D2EA9
:100C5000982706152F2698270611362601342D08C9
:100C6000AF003A08AD07390AAE0001342D08AF00D5
:100C70003808AD07370AAE0001348B27E730C100D2
:100C800001309227861508008B274122031D08009A
:100C9000E730C1000130922798278B1683160C1578
:100CA0008C148312861108003D2664007E18682685
:100CB0007E1C6B268A150A128D218A110A12B30B2B
:100CC000552E83128B1683160C158C148312080074
:100CD000982786106D2E9827861483162E1F762E41
:100CE00083121830C100013092277B2E8312C0304E
:100CF000C1000130922708004F30AA00A9018A15CF
:100D00000A1230278A110A120319932E9426A90A6F
:100D10002918A80E2918AA0A2A088400291880016F
:100D2000280880047F2E0134A8013208B000031087
:100D3000B00DB00DB00DA726A80D0A302802031C77
:100D4000A32E0A30A802B00B9B2EA72601347030C8
:100D500084003208FF00800D840AFF0BAB2E0134A3
:100D60000430B20008000230B200080050308400A5
:100D70008001840A841DB82E080070308400800130
:100D8000840A041ABF2E0800603084000412000890
:100D900004168000840A841DC62E0800703084006A
:100DA0000416000804128000840A841DD02E080056
:100DB000703084001030A80004160008041280006F
:100DC000840AA80BDC2E0800603084001030A800D4
:100DD0000412000804168000840AA80BE82E0800FC
:100DE000603084001030A800041284160008041635
:100DF00084128000840AA80BF42E0800703084004E
:100E0000841684110008841284158000840A8419D1
:100E1000002F0800503084000416841200080412C9
:100E200084168000840A841D0C2F08008316330862
:100E30001B2F831632088312A80008008A110A1695
:100E4000B1248A110A120800831686008312080052
:100E5000261B4F2FA61B4F2F55278A110A167626C1
:100E60008A110A128A110A16B8258A110A128A11E1
:100E70000A1600268A110A1283162D19442F8A1188
:100E80000A16FA248A110A128A150A12C1268A1130
:100E90000A128A110A1689248A110A1208008A1174
:100EA0000A16E3258A110A1208004122031D0800D0
:100EB0008611080060277808F7067908F60608000A
:100EC000CE268A110A1611248A110A12C426080095
:100ED000C200C10B692F6400C20B692F0034702F50
:100EE000712F722F732F742F752F762F772F782FE6
:100EF000792F7A2F7B2F7C2F000008007F2F802FE7
:100F0000812F822F832FFB30013E031D842F080089
:100F1000013001028D2F01300107AF00AD00AE019D
:100F2000AE0A0800AE002D08AF004108AD0708006A
:100F30008B1283168C108312A22F64002F080102DB
:100F4000031D9D2F0000AE0B9D2F6030A800A80B45
:100F5000B12F83160C1183128A110A16AF258A113C
:100F60000A122D0A0102031DA72F83160C158312E6
:100F700000348B1283168C108312C32F64002F0849
:100F80000102031DBE2F0000AE0BBE2F5030BB0070
:100F9000BB0BD22F83160C1183128A110A16AF25B0
:100FA0008A110A122D0A0102031DC82F83160C157F
:100FB00083120034FF3FFF3FFF3FFF3FFF3FFF3FF4
:100FC000FF3FFF3FFF3FFF3FFF3FFF3FFF3FFF3F31
:100FD000FF3FFF3FFF3FFF3FFF3FFF3FFF3FFF3F21
:100FE000FF3FFF3FFF3FFF3FFF3FFF3FFF3FFF3F11
:100FF000FF3FFF3FFF3FFF3FFF3FFF3FFF3FFF3F01
:101000004008BE3C03191E2A4008BD3C03191E2A95
:101010004008473C0319B82940084D3C0319CD2925
:1010200040084E3C0319E82940084F3C0319032AA5
:101030004008593C0319292B4008243C03190E2B66
:101040004008123C0319F12A4008043C0319D82A2D
:101050004008023C0319BF2A40080E3C03193C2BF0
:101060004008003C0319A62A40088C3C0319A62A14
:1010700040088E3C0319572B4008603C03199A28FE
:101080004008643C0319B62840086A3C0319D2287A
:101090004008BC3C031D52288A110A12AF2C8A1149
:1010A0000A16652D8A110A121C29051603178312C8
:1010B000031383128316C23081000D309F00CF309E
:1010C000850001308600F030870088309D000630B2
:1010D0009C009C088312003094007B309200DF302B
:1010E0008316920083120B30970034309000063044
:1010F00083168C00831206304926A3268C01C0304B
:101100008B00E0308600E0308A110A12EA238A154B
:101110000A1285168316DE01A701AD01AB01AC01F1
:10112000D801D901AD15DE145E15DF01E4018A1185
:101130000A12D728A3178316310883128039031D9A
:10114000A313A3120830B1002A308316D60023302F
:10115000D7002E12AE1283128316B71EB2280A30A1
:101160008312B100B0218312F0260E29A317831633
:10117000310883128039031DA313A3120830B10074
:101180002A308316D6002330D7002E16AE168312CF
:101190008316B71ECE280A308312B100B021831205
:1011A000F0260E298A110A12FE268A150A128A11C1
:1011B0000A12DB248A150A128A110A12F0268A15ED
:1011C0000A12A313A3120A30B1002A308316D600E4
:1011D0002330D7002E12AE1283128A110A16EE2384
:1011E0008A150A12B0210E2996269626E226FB269B
:1011F0002130DB064830DA06A313A3161830B100FD
:101200002A308316D6002330D7002E16AE1683124E
:1012100083167830AE008312AB210F29932164002E
:10122000831656088312A9005B213D2183120130E9
:101230003102A8008312812153215B213D218312B9
:10124000B10B1A29831657088312A9005B213D218F
:1012500083162E1E302983120D30A9005B213D21FB
:101260008316AE1E382983120A30A9005B213D2166
:101270008316D818F62883124F2883164E08831237
:10128000103CB30003148D21B30B422983164E0882
:101290008312B3008A110A1254268A150A12831681
:1012A000CE0183120800093C031C5829303059290B
:1012B0003730A907080003108D218316CE0A831248
:1012C00029088316CD002E100730AF002E192E14DA
:1012D000AE19AF0A0310CD0C031C70290130AE0605
:1012E0008D21CE0AAF0B6A29AE1C79292E0C8D21D7
:1012F000CE0A03148D21CE0A03148D21CE0A831247
:101300000800503084000310280C84070008281CB3
:10131000000E0F39A900A80308007F308400800C5C
:101320008403800C08008316F030AE05CE0109302E
:101330008A00350803398207A229A429A729A029F0
:10134000AE15A729AE14A729AE142E15A729351D51
:101350002E1335192E178312A801A901AA0108001E
:1013600083165E1CB62983120130B1008312080077
:10137000A313A316D030B8000030B7007430BA0001
:101380000030B900C130A6050630A6045530BD00B6
:101390000030BC008A110A12EE2CA3178316310804
:1013A00083128039031DA313A316D030B800003078
:1013B000B7007430BA000030B900C130A60506305D
:1013C000A6045630BD004D30BC008A110A12EE2C26
:1013D000A3178316310883128039031DA313A316A4
:1013E000D030B8000030B7007430BA000030B90017
:1013F000C130A6050630A6045630BD004E30BC00F4
:101400008A110A12EE2CA317831631088312803931
:10141000031DA313A316D030B8000030B7007430FA
:10142000BA000030B900C130A6050630A604553018
:10143000BD000030BC008A110A12EE2CA313A316C3
:10144000D030B8000030B7007430BA000030B900B6
:10145000C130A6050630A6045530BD00BE30BC0024
:101460008A110A12EE2C3C08031908003C084E3C75
:101470000319552A3C08BE3C03195A2A3C084D3C26
:10148000031D08009A227108F0007208F1008A1109
:101490000A128E258A150A125008E0005108E10050
:1014A0005208F0390638E20008006208F0390638C0
:1014B000E200080083165E1C5F2A83120800B71A38
:1014C000652A8312DB1F0800DB1383128A110A12BC
:1014D000B0268A150A129A220030BE000A30BD00DA
:1014E0008A110A128E258A150A128A110A120A27EF
:1014F0008A150A128A110A12A0258A150A12831661
:10150000B71E932A83120130B2005C08F0008A11E2
:101510000A128E258A150A120330BD008A110A129A
:10152000A0258A150A1283128A110A127B258A15B0
:101530000A120800583084008412841500088416AA
:1015400084118000840A841D9C2A0800A317831636
:10155000310883128039031DA313A3122030B30076
:101560000C30BA000030B9001730B8000030B700B6
:101570004030A500FC30A4050230A4048E2BA31734
:101580008316310883128039031DA313A312203060
:10159000B3001730BA000030B9005C30B80000303A
:1015A000B7004030A500FC30A4050230A4048E2B07
:1015B000A3178316310883128039031DA313A312C6
:1015C0002030B3000C30BA000030B900CE30B80083
:1015D0000130B7000730A500FC30A4050230A40498
:1015E0008E2BA3178316310883128039031DA31392
:1015F000A3121930B3000C30BA000030B900B53076
:10160000B8000230B700D630A500FC30A405023087
:10161000A4041830BB00C830BC008E2BA31783165F
:10162000310883128039031DA313A3122430B300A1
:101630000C30BA000030B9001530B8000130B700E6
:10164000C230A500FC30A4050230A4040430BC0064
:101650008E2BA313A3163030B3001730BA0000301E
:10166000B9005C30B8000030B7004230A500FC3053
:10167000A4050230A4048E2BA3178316310883120D
:101680008039031DA313A3121930B3000C30BA0024
:101690000030B9006830B8000030B7005630A500FF
:1016A000FC30A4050230A4041830BB008E2BA31319
:1016B000A3162830B3001730BA000030B9005C30F0
:1016C000B8000030B700C030A500FC30A4050030E1
:1016D000A4048E30BC008E2B3C08043C03197923F3
:1016E0003C08C83C031981233C088E3C0319832322
:1016F0000800F31BF415F31FF411F313F830F4058D
:101700000800CE2308007508B300283C031C8B2B6F
:10171000B308031D8D2B2830B300080083165E1814
:1017200036248312A51B6C23D823251B22242518BD
:10173000A3232519AE234018BB238A110A120F26B2
:101740008A150A124F288A110A1634238A150A129A
:10175000A51C7010A5187014B30A080022248A1161
:101760000A1634238A150A12A51D7010A5197014C3
:10177000B30A2224080083165E1CC02B83120800C3
:10178000831222248A110A1634238A150A12261C6F
:10179000701026187014B30A222408008316320829
:1017A0008312A800A81F0800A5162514B30308007B
:1017B0003B080739251AE623A51EE52B3B08A800A0
:1017C000A80CA80C280C1F39FB2301340C3EB400D4
:1017D0008A110A12CE268A150A121224A418013A76
:1017E000A41C003AA5150319A5118A110A12C426D2
:1017F0008A150A120134093EB40022248A110A1201
:10180000CE268A150A1212242418013A241C003A02
:10181000A5140319A5108A110A12C4268A150A12E2
:10182000222401346F3084000301B601840AB61506
:101830000007800CB40B1D2C202CB60B182C162C7A
:10184000013908003308B0008A110A12CE268A1521
:101850000A128A110A12CC258A150A128A110A164E
:1018600034238A150A12B00B292C01348312083054
:10187000B3004030A505FC30A405BB01BC01080045
:1018800083162D1D080083124008BD3C031D08006F
:1018900083162D1C542C83128A110A1241228A1598
:1018A0000A12013C031908009624640083128A116D
:1018B0000A124E228A150A12031D7D2C8A110A1261
:1018C0005B228A150A12031D7D2C83120108C100B8
:1018D000C1134113C112411603018A110A16B9231B
:1018E0008A150A128A110A12D4228A150A12013C98
:1018F0000319862C83162D1C552CA62401308A1121
:101900000A1224278A150A1286100800A6248312B8
:10191000061786178616BC308316B00083128A110C
:101920000A121E278A150A1283160800A326831698
:10193000AD142D100830AC00831203308A110A1246
:1019400024278A150A124526121508008316AD10A1
:101950002D14A7018312121191018A110A1668260B
:101960008A150A12A32683128E2683166400A719ED
:10197000B62C831208008316B71ECE2C831266087D
:10198000FB006508FA006408F9006308F8006208C3
:10199000F7006108F6006008F500D92C831264088E
:1019A000FA006308F9006208F8006108F7006008AF
:1019B000F60083165E1CE82C5A08F900F90DF90DA3
:1019C000F90DF90DF030F905B71EE82C7908F8008B
:1019D000831652080319F72C5E1CF12C2830B71A15
:1019E0003030D400831208278316D40BF22C6A25DA
:1019F0008312FB26102782308316D31884305E189A
:101A00008130831217258D2505308316D318043EA7
:101A10005E1802308312262533308316D3185330D4
:101A20005E181B308312B3008A110A12B22CFF0019
:101A30008A110A12AC248A150A12A8000310A80DF4
:101A40000310A80D0310280DFF040800B1007F301B
:101A50008400030100078403B10B2A2D8000000CD1
:101A6000FF30800684038001800C08008330172536
:101A700083160A30B71A103A8312FE008316031039
:101A8000DF1E03148312FE0D4130FD000430FC0004
:101A9000043026252B30B30003148A110A12332C8C
:101AA0008330172583160A30B71A103A8312FE00C6
:101AB00083160310DF1E03148312FE0D4130FD0058
:101AC0000430FC00043026252B30B30003148A11A7
:101AD0000A12C22C83165E1C6F2D83120800D108D7
:101AE000031D742D8312080077308400D3187A2DDB
:101AF0000430840703104F0C840703104F0C031CA1
:101B0000842DF0308005840A7F30040203188B2D69
:101B10008001840A842D8312080083165E18080051
:101B2000D31C08000830D5007E3084000F3000053B
:101B3000D400031D9E2D0C308004A62D0A305402C3
:101B4000031CA62DF030800509308004F03000051C
:101B5000D400031DAE2DC0308004B72DD40E0A3042
:101B60005402031CB72D0F3080059030800484038D
:101B7000D50B962D831208000D308A000830F3250E
:101B8000700880390319ED2D7008A9000739820704
:101B9000013A1B3A013A173A093A1B3A193A173AED
:101BA000B000B100183CA8003008F3252808012631
:101BB0008A110A12C8258A150A122908F70003108B
:101BC000B10C0310B10C0310B10C31088A110A12C8
:101BD000F2238A150A120319F02D8A110A12D22A49
:101BE0008A110A12062BB0008A110A1207238A15DD
:101BF0000A128A110A1634238A150A12B00BF42D20
:101C00000800A800A80803190C2E8A110A1634230C
:101C10008A150A12A80B052E08008A110A168023BD
:101C20008A150A12031D08004F08CF018606080016
:101C3000E0308604222E8A110A168A238A150A1297
:101C4000031D0800DE30C10000308A110A16C523CA
:101C50008A150A122408E0398606241B0800831618
:101C6000E41083120800A31C08008A110A169423AA
:101C70008A150A12031D0800A3108316641C422E45
:101C800083120800831206170800A21422142215DA
:101C900008008316A400A3002715230EF039831231
:101CA00095008316230E0F39831296008F018E0143
:101CB00010140800831627141030A6001830831261
:101CC000622E063049260616080083162719752E3F
:101CD00083120230A41D03308316A60083126126EE
:101CE000A219752E9101121508008312080083169F
:101CF000A4002030862E8316A4001830862E83166A
:101D0000A4000730862E8316A4000330A600240802
:101D1000492683120616910112150800A326831680
:101D20006415A715AA01313083260800A32683165F
:101D3000A7152716AA011230832683166400A71957
:101D4000DC2E8312080083120612A21110100C114F
:101D500083162711831208000E308A00760E0F3981
:101D600082070334063409340C340F34123415342A
:101D7000183419341F342234253428342B342E34AB
:101D800031348312C0302605031DE02E8316DE1881
:101D9000E02E5E19E02E2D19E02ED818E02E5819ED
:101DA000E02E83124008BD3C0319DA2E4008BC3CEB
:101DB000031DE02E8E2683166400A719DC2E2D1538
:101DC000831208008316B03084001030D40004134E
:101DD000000804178000840AD40BE72E8312080041
:101DE000703084008416000884128000800E840AFB
:101DF000841DF22E08001030A80070308400841674
:101E0000000884128000800E840AA80BFF2E0800B0
:101E1000703084006400800C840A041A0B2F0800C0
:101E2000503084001030A80084120008841680000E
:101E3000840AA80B142F0800703084000430B60008
:101E400004110008A80004150008041180002808E7
:101E500004158000840AB60B202F8A110A12CB2D9C
:101E6000703084003208B1000008031D0800840AA5
:101E7000B10B342F00380800503084000310280CB8
:101E800084070008281C000E0F39A900A80A0800C2
:101E9000703084000730B6000008031D0800840A73
:101EA000B60B4C2F0008FC390C3C031D0800241510
:101EB000F718612F8316771C58157718D8148312DA
:101EC000080077180800A31508008312E2268A117B
:101ED0000A12D8268A150A128A110A12F0268A15C1
:101EE0000A121230DB068430DA061830BD0096265E
:101EF0003C27A9080319802F9A278F27A90B7C2F2D
:101F000022149627962622109627BD0B782F640060
:101F1000962696269626962696269626652FA2140F
:101F20000A307F269E278617A210080083129A2760
:101F30009A27080083129E279E27080083128A1181
:101F40000A16F0228A150A120800FF3FFF3FFF3FE2
:101F5000FF3FFF3FFF3FFF3FFF3FFF3FFF3FFF3F91
:101F6000FF3FFF3FFF3FFF3FFF3FFF3FFF3FFF3F81
:101F7000FF3FFF3FFF3FFF3FFF3FFF3FFF3FFF3F71
:101F8000FF3FFF3FFF3FFF3FFF3FFF3FFF3FFF3F61
:101F9000FF3FFF3FFF3FFF3FFF3FFF3FFF3FFF3F51
:101FA000FF3FFF3FFF3FFF3FFF3FFF3FFF3FFF3F41
:101FB000FF3FFF3FFF3FFF3FFF3FFF3FFF3FFF3F31
:101FC000FF3FFF3FFF3FFF3FFF3FFF3FFF3FFF3F21
:101FD000FF3FFF3FFF3FFF3FFF3FFF3FFF3FFF3F11
:101FE000FF3FFF3FFF3FFF3FFF3FFF3FFF3FFF3F01
:101FF000FF3FFF3FFF3FFF3FFF3FFF3FFF3FFF3FF1
:102000008A110A1694238A110A16031D0D288316B5
:10201000DE1C0E28DE105E160E288316D908031D5E
:1020200046284D20A800FF390319432828088316A5
:10203000DA00FE228312261B4628A61B462883169A
:102040005E1946285E14DE115A088312F000E00083
:102050000030F100F200F300831638088312F40018
:10206000831639088312F50083163A088312F600A6
:1020700083163B088312F7006A304006031D46288A
:102080000F30F005462883160030DA008316590811
:1020900003194B28D903831208008312F730AA00D2
:1020A0008924FF3E0319003483122A088700822105
:1020B0000708A900A41D7B282A080139031D6728E9
:1020C00029088039031966282412672824162A084B
:1020D0000239031D7B2829088039031D74288316C3
:1020E000DF1E7B28DF1278288316DF1A7B28DF1695
:1020F0008A110A12BE2C8312290883167039703A8D
:10210000031DDF2883120314AA0C0318502883161A
:102110005F194B298A110A1689248A110A16FF3E73
:10212000031952298316DF1D9728DF115229003029
:10213000DB00DE18D7288312A41DC2288316E41CF6
:10214000AC288312A41FA728861FB228B528A41E76
:10215000AB28861EB228B5288312A318B728831689
:10216000641CB52883120613B7288312061783163A
:102170006419D7285E1383128A150A12A3268A11BE
:102180000A16D7288316DE13831222118316B31A78
:10219000D7285E1383128A110A1257228A110A164F
:1021A000031DD7288A150A12A3268A110A1683123C
:1021B000FF3087008316FF30DA00DC0052298316D7
:1021C000DF15DE180B298312A41DFE288316E418E0
:1021D000F4288312A318F6288316641EF628641CBC
:1021E000F42883120617F628831206138312221F7F
:1021F0000B298316E4195E1783120B2983165E19C7
:10220000032932190629DE17831222158316B31A01
:102210000B295E1783128312FF308700290883166B
:102220005C0603195229831229088316DC005C1C02
:102230002329DC1C21295C1D1F2909302429063093
:1022400024290330242900308312A80083165C1E41
:1022500030298312A80A8316DC1E30298312A80AAB
:1022600002308312A4193529FF308316D9005C216E
:10227000A900831600305B06031D44298312290838
:102280008316DB005F1583120F302A05A9000E307C
:102290002906031D822883165F1D52295F115B08E2
:1022A00083120800DE1C5A29B7305C0603195A292C
:1022B0005E11DE10831200348312A80AA80B612974
:1022C000E134A80B6429D234A80B6729C334A80BC6
:1022D0006A29B434A80B6D29A534A80B702996344B
:1022E000A80B73298734A80B76297834A80B792991
:1022F0006934A80B7C295A34A80B7F29F0344B345D
:102300000530862903308629023086298316DD00B0
:10231000DD0B882983120800A319C2298316D81857
:10232000BB295819BF2983128A150A1248278A1116
:102330000A160319F4216026A215E030C10000300E
:102340008A110A16B9238A110A168A110A167123EC
:102350008A110A1668262214E030C10000308A1162
:102360000A16B9238A110A168A110A1671238A11CC
:102370000A16A211080083128A150A12F4288A1577
:102380000A12652F64008A110A125B228A110A164A
:10239000031DCE29221086110611DB2922148A1171
:1023A0000A124E228A110A160319D9298615061116
:1023B000DB29861106158A110A124E228A110A1685
:1023C0000319E429A214E529A2108A110A1257223E
:1023D0008A110A160319EE29A215F3298A150A1281
:1023E000A3268A110A16C229CC228614FF21861040
:1023F000FF210615FF21FF210611FF21F5290A30D3
:10240000B6008A110A1241228A110A16031986118E
:10241000031D86155930C10000308A110A16B923F0
:102420008A110A168A110A1671238A110A168A114C
:102430000A1671238A110A16B60B012A08008316A0
:102440005E1D08005E1E2E2A5E122230E000DF14A0
:10245000861686178312DA22261335228316DE1E8D
:10246000332A41223025831208008A150A12A32636
:102470008A110A168316DE120830AC008312121578
:10248000080083165E11DE16DF10A70183121211F9
:1024900091012613A61368268A150A12A3268A110B
:1024A0000A16DA2283165F1E5C2A5F1256238A11EF
:1024B0000A121E278A110A1683160130860083121B
:1024C000E03086048A110A1209298316DE1C6A2A62
:1024D0008312080083165E1D6F2A8312862A8312D8
:1024E000261FAC2A8A110A1680238A110A16031D98
:1024F0007B2A2613B72AF71B792A8A150A1248273E
:102500008A110A16241D8D2ACC22792AF71F8B2ABC
:10251000A6172613BB2A2617A6138316FF30E20040
:10252000831256238A110A12BE218A110A168316B3
:102530005E1D9C2A8312A72A83123130C1001C30F1
:102540008A110A16BF238A110A162613A617DA2241
:1025500030258A110A120929A61F00348A110A1689
:1025600080238A110A160319B72AF71BBB2AA61360
:10257000302583120034DA228A110A12CA218A1104
:102580000A1683165E1DC62A8312C82A8312A61352
:1025900030258A110A12092968268530C1000330C6
:1025A0008A110A16B9238A110A168A110A1671238A
:1025B0008A110A16221504308A150A127B268A11FE
:1025C0000A16A330C10002308A110A16B9238A11F3
:1025D0000A168A110A1671238A110A162211080096
:1025E000E030C10000308A110A16B9238A110A1698
:1025F0008A110A1671238A110A160800DE18302B78
:102600005E1D302B4B305A06031D082BDE16302B77
:102610005A305A06031D0E2B5F14302B5F1C302BD3
:10262000E1305A06031D172B2D11BC302B2BD23055
:102630005A06031D1E2B2D1512302B2BC3305A06A4
:10264000031D252B2D15BE302B2BB4305A06031D30
:10265000302B2D1559305F10B000E2005F16DA22E2
:10266000080071308400362B70308400800D840A9D
:10267000841D362B0800703084001030A800800DB7
:10268000840AA80B3F2B08007F308400800C840351
:10269000041A462B08000317831200308D0083169E
:1026A0008C130C1483120C080313080003178316F1
:1026B0008C18582B831200308D0003138316620888
:1026C000031783128C0083168C130C158B13553053
:1026D0008D00AA308D008C148B170C1103138312FC
:1026E000080064007623031D712B08008B128316EB
:1026F0000C118C1083124708C20044084602AD2B0F
:102700008B1283160C118C1083124908C2004408E6
:102710004802AD2B8B1283160C118C1083124B08C0
:10272000C20044084A02AD2B8B1283160C118C1088
:1027300083124D08C2004408831629028312AD2B70
:102740008B1283160C118C108312831622088312AD
:10275000C2004408831621028312031CC2034508E9
:1027600042028039803A8B1683160C158C14831222
:102770000800DD234108C6004208C7000800DD2329
:102780004108C8004208C9000800DD234108CA000A
:102790004208CB000800DD2341088316A9008312FC
:1027A0004208CD000800DD2341088316A1008312F2
:1027B00042088316A200831208008B1283160C11A4
:1027C0008C1083124507C2004408C1070318C20ACF
:1027D0008B1683160C158C148312080083165E1C4E
:1027E000FE2B83120F3050050319FE2BF0305005DD
:1027F000031DFC2BA030FD2BB030D000831208004D
:1028000083165E18052C123E062C143E8312080017
:1028100083160A305E180D2C08308312B6000301AF
:1028200008000630FF006F3084000301840A0006B0
:10283000FF0B162CF9000630FF006F3084000830C3
:10284000FC00FB01840A800C0318FB0AFC0B232C00
:10285000FB0CF80CFF0B1F2CF80CF80CF813781776
:1028600008007608031D3C2C0830F5000330831661
:10287000B71A06308312F6001F30F505F508031964
:102880007A2C7508A8007608A80728088316D200B5
:1028900083120C308316B71A0F30831228020318E4
:1028A0007A2C093075020318582C8316D3105A2C31
:1028B0008316D314831275088316CF008316013054
:1028C000D202B71E652C0130D202D31C692C08300D
:1028D000D2020310D20D0310D20DD3181030D31C26
:1028E0000830D1004F08D1028312A21383128A113B
:1028F0000A12D12AA217762C0108C100C113411374
:10290000C112411603018A110A16B9238A110A1647
:1029100008008312A41D972C8A110A1241228A11E1
:102920000A16031D972C8316671483120134003492
:102930000800FE3087008221070880390319A22C85
:102940002412A32C2416FD30870082210708803929
:102950000319AD2C8316DF16AF2C8316DF128312FA
:1029600008004B23A800FF3028060319CE2C59304D
:102970002806031DBD2C0030C42C12302806031D70
:10298000C32C8030C42C04308316B2002030B30036
:10299000B401B5015E1383122808D12C83163008C8
:1029A0008312C0004008BC3C031D08008316DE18DB
:1029B000DB2C5E1DDD2C831208008312A415261368
:1029C00003308A110A1224278A110A16E0308A116C
:1029D0000A12EA238A110A16E03086048316831647
:1029E000D3010830CF00D1012830B71A3030D200DF
:1029F000831208008316DE18FF2C5E1D012D831242
:102A000008004B23A800FF30280603190C2DBC300A
:102A10002806031D112D132D8316BC303006031913
:102A2000132D831208008312A415261303308A1174
:102A30000A1224278A110A16E0308A110A12EA23A0
:102A40008A110A16E030860483168316D3010830F3
:102A5000CF00D1012830B71A3030D20083120800DD
:102A60004B23A800FF30280603193B2DBC30280655
:102A7000031D402D422D8316BC3030060319422D14
:102A800083162D1583120800A4190800231E0800C0
:102A90008A110A1241228A110A16031D08005C2DB0
:102AA000A4195C2D8A110A1241228A110A160319EF
:102AB0005C2D231613260800231E622D8316DE19B3
:102AC0005E1083128A150A1200288A110A124426FF
:102AD0008A110A1683165F1F852D5F138312063035
:102AE0008316A40001308A150A1286268A110A1656
:102AF0000E30C10000308A110A16B9238A110A1655
:102B00008A110A1671238A110A168312231E8A2D2E
:102B100023128B2D132683165E10831208000000EB
:102B200000000000000000000000000000000000A5
:102B300000000000000000000000000083120C1DD7
:102B4000A72D103086068F018E010C11AD2D0000CF
:102B50000000000000000000000083120800831243
:102B60000C1D0800103086068F018E010C11080024
:102B70008A110A1219278A110A1628180800A81C97
:102B8000C42D8A110A16F32D8316DF1CC92D83125A
:102B9000D22D83128A110A125B228A110A16031996
:102BA0002210031D22148316DF1CD82D8312E12D61
:102BB00083128A110A124E228A110A160319A210D0
:102BC000031DA2140800A2148A110A1680238A1178
:102BD0000A16031D08002613A6138A110A163025AB
:102BE0008A110A1608008A110A124E228A110A1640
:102BF000031DFD2DA21022140800A21422100800AB
:102C00008A110A16A0238A110A16031D0800A419A6
:102C1000080022165930C10000308A110A16D32349
:102C20008A110A16080083165E1C202E8312A21930
:102C3000080083165E1F1E2E8312A2158312080041
:102C40008312A419080023118A110A1219278A1164
:102C50000A16281860268A110A1216278A110A16DF
:102C6000A81A08008A150A1265268A110A16593010
:102C7000C10000308A110A16B9238A110A168A1176
:102C80000A1671238A110A16080023118316DE1B07
:102C90004B2E8312A21283128A110A1219278A114B
:102CA0000A16281C592E8316DF18592E8312221457
:102CB000A21083128A110A1600268A110A16080029
:102CC000A2148316DE1B662E8312A21283126E2EAE
:102CD000A2108A150A12A3268A110A162210831638
:102CE000DE1B742E8312221183120800A41908001F
:102CF0008316DE187D2E5E1D7F2E831208008A113A
:102D00000A1216278A110A16281A9A2E8A110A12EE
:102D100057228A110A1603198F2EA215982E831690
:102D20005E1B982E83128A150A12A3268A110A1690
:102D3000831208008A110A1257228A110A16031DEB
:102D4000A32E23170800231F0800231306308A151B
:102D50000A1277268A110A160800A4190800831699
:102D6000DE18B42E5E1DB62E831208008A110A12D8
:102D700016278A110A16281A08008A110A125722E1
:102D80008A110A160319080083165F1783120800B8
:102D9000FF3FFF3FFF3FFF3FFF3FFF3FFF3FFF3F43
:102DA000FF3FFF3FFF3FFF3FFF3FFF3FFF3FFF3F33
:102DB000FF3FFF3FFF3FFF3FFF3FFF3FFF3FFF3F23
:102DC000FF3FFF3FFF3FFF3FFF3FFF3FFF3FFF3F13
:103F800028006300290020004200650077006100DE
:103F900074006F00720020004C0074006400200068
:103FA00032003000300037002000320033002F0094
:103FB000300036002F00300038002000380032007A
:103FC0003200310030002D00300031002D00300073
:103FD0003400FF00FF3FFF3FFF3FFF3FFF3FFF3F3A
:103FE000FF3FFF3FFF3FFF3FFF3FFF3FFF3FFF3FE1
:103FF000FF3FFF3FFF3FFF3FFF3FFF3FFF3FFF3FD1
:10420000BC00FF00FF00FF00FF00FF00FF00FF00F9
:10421000FF00FF00FF00FF00FF00FF00FF00FF00A6
:10422000FF00FF00FF00FF00FF00FF00FF00FF0096
:10423000FF00FF00FF00FF00FF00FF00FF00FF0086
:10424000FF00FF00FF00FF00FF00FF00FF00FF0076
:10425000FF00FF00FF00FF00FF00FF00FF00FF0066
:10426000FF00FF00FF00FF00FF00FF00FF00FF0056
:10427000FF00FF00FF00FF00FF00FF00FF00FF0046
:10428000FF00FF00FF00FF00FF00FF00FF00FF0036
:10429000FF00FF00FF00FF00FF00FF00FF00FF0026
:1042A000FF00FF00FF00FF00FF00FF00FF00FF0016
:1042B000FF00FF00FF00FF00FF00FF00FF00FF0006
:1042C000FF00FF00FF00FF00FF00FF00FF00FF00F6
:1042D000FF00FF00FF00FF00FF00FF00FF00FF00E6
:1042E000FF00FF00FF00FF00FF00FF00FF00FF00D6
:1042F000FF00FF00FF00FF00FF00FF00FF00FF00C6
:10430000FF00FF00FF00FF00FF00FF00FF00FF00B5
:10431000FF00FF00FF00FF00FF00FF00FF00FF00A5
:10432000FF00FF00FF00FF00FF00FF00FF00FF0095
:10433000FF00FF00FF00FF00FF00FF00FF00FF0085
:10434000FF00FF00FF00FF00FF00FF00FF00FF0075
:10435000FF00FF00FF00FF00FF00FF00FF00FF0065
:10436000FF00FF00FF00FF00FF00FF00FF00FF0055
:10437000FF00FF00FF00FF00FF00FF00FF00FF0045
:10438000FF00FF00FF00FF00FF00FF00FF00FF0035
:10439000FF00FF00FF00FF00FF00FF00FF00FF0025
:1043A000FF00FF00FF00FF00FF00FF00FF00FF0015
:1043B000FF00FF00FF00FF00FF00FF00FF00FF0005
:1043C000FF00FF00FF00FF00FF00FF00FF00FF00F5
:1043D000FF00FF00FF00FF00FF00FF00FF00FF00E5
:1043E000FF00FF00FF00FF00FF00FF00FF00FF00D5
:1043F000FF00FF00FF00FF00FF00FF00FF00FF00C5
:02400E00763FFB
:08400000FF3FFF3FFF3FFF3FC0
:00000001FF
